:1003E50050617373776F7264006F6B200065727272
:0503F5000020202000A3
:10014D0012040E7BFF7A0379E57D017F01120371A5
:10015D001200038F25E52560F7C3940A5030E52280
:10016D009403501CAE23AF247C007D0A12022C8E0A
:10017D00238F24E5252524F524E43523F5230522B5
:10018D00750C04AB24AA237D017F021203B2E52571
:10019D00640B7034E524B4290DE523B409087BFF05
:1001AD007A0379EE80067BFF7A0379F27D0D7F016C
:1001BD00120371E4F523F524F522750C04AB24AA82
:1001CD00237D017F021203B2E525640C7082F523B5
:1001DD00F524F522750C04AB24AA237D017F0212B0
:1001ED0003B27BFF7A0379F67D0D7F011203710255
:0201FD00015DA2
:1003FA00AE071FEE600D0000007E0B7DBEDDFEDE47
:03040A00FC80ED86
:01040D0022CC
:06042200C2A58F80D2A7E5
:080428007F027EEFDEFEDFFC27
:0104300022A9
:0A043D00C2A6120422C2A70204287E
:10039400CFCDCFCECCCE12023E7C007D0A12023EDF
:0403A400ED2430FF15
:0A03A800D2A6120422C2A702042804
:1003CF00AE07BE0104ED148006BE0209ED243F44C2
:0603DF0080FF12043D2224
:10040E007F3812043D7F0C12043D7F0612043D7F9F
:04041E000102043D96
:0A044700AC031203CFAF040203A8B8
:060371008B088A09890ACD
:100377001203CFE4FDAB08AA09A90A8D8275830091
:0C0387001201FFFF60061203A80D80E9C0
:010393002247
:0C033E007F0AEA24FFFDE434FFFC7E008F
:08034A008E0D8F0E8C0F8D103B
:100352007F017E00E4FBEBC39510E50F6480F87427
:0E0362008098500AAC0DAD0E12022C0B80E8F4
:01037000226A
:0403B2008A0A8B0B1D
:1003B6001203CFAA0CEAD39400400D12033EAC0AF6
:0803C600AD0B1203941A80ED47
:0103CE00220C
:100293001203CFC3EA64809480400B7F2B1203A820
:1002A3008A168B17800E7F2D1203A8C3E49BF517C4
:1002B300E49AF516AA15EAD39400400D12033EAC56
:0902C30016AD171203941A80ED28
:0102CC00220F
:0402CD008A1A8B1BE3
:1002D1001203CFAA1CEAD3940040297F10120340D5
:1002E100AC1AAD1BCFCDCFCECCCE12023EEF540F08
:1002F100FEC3940AEE5004243080022437FF120317
:04030100A81A80D1E5
:0103050022D5
:040306008A1F8B209F
:10030A001203CFAA21EAD394004028EA24FFFDE48D
:10031A0034FFFC7F027E0012034AAC1FAD20CFCD12
:10032A00CFCECCCE12023EEF54012430FF1203A8E6
:03033A001A80D254
:01033D00229D
:10000300E4F5087590FFC2932097107F141203FA4A
:100013003097FD7F141203FA7508012096107F14A0
:100023001203FA3096FD7F141203FA750805209522
:10003300107F141203FA3095FD7F141203FA75082A
:10004300092094107F141203FA3094FD7F141203D5
:10005300FA75080D7590FFC2922097107F14120352
:10006300FA3097FD7F141203FA7508022096107F69
:10007300141203FA3096FD7F141203FA7508062052
:1000830095107F141203FA3095FD7F141203FA754D
:10009300080A2094107F141203FA3094FD7F14127F
:1000A30003FA75080E7590FFC2912097107F141202
:1000B30003FA3097FD7F141203FA75080320961094
:1000C3007F141203FA3096FD7F141203FA750807A2
:1000D3002095107F141203FA3095FD7F141203FA52
:1000E30075080B2094107F141203FA3094FD7F14CB
:1000F3001203FA75080F7590FFC2902097107F14B2
:100103001203FA3097FD7F141203FA750804209640
:10011300107F141203FA3096FD7F141203FA750848
:10012300082095107F141203FA3095FD7F141203F3
:10013300FA75080C2094107F141203FA3094FD7F93
:09014300141203FA750810AF084C
:01014C002290
:03000000020431C6
:0C043100787FE4F6D8FD75812502014DAE
:1001FF00BB010CE58229F582E5833AF583E02250B5
:10020F0006E92582F8E622BBFE06E92582F8E222FE
:0D021F00E58229F582E5833AF583E4932218
:10022C00EF8DF0A4A8F0CF8CF0A428CE8DF0A42EE6
:02023C00FE22A0
:10023E00BC000BBE0029EF8DF084FFADF022E4CCA4
:10024E00F875F008EF2FFFEE33FEEC33FCEE9DEC6D
:10025E00984005FCEE9DFE0FD5F0E9E4CEFD22EDB3
:10026E00F8F5F0EE8420D21CFEADF075F008EF2FFD
:10027E00FFED33FD4007985006D5F0F222C398FDEE
:05028E000FD5F0EA228B
:00000001FF
