:0603380048454C4C4F004B
:04033E0002130000A6
:100123001202ED7B417D017F0112032E7FC8120372
:10013300017BFF7A0379387D017F011202797FC841
:10014300120301750C057B7B7A007D077F01120288
:10015300BA750C027BDA7AFF7D0D7F0112019B7564
:100163000C027BA87A007D017F021201D5750C0871
:100173007BAA7A007D047F0212020E0514E5147037
:100183000205137FE8120301750C05AB14AA137D56
:08019300017F011202BA80E3B2
:06031500C2A58F80D2A7F3
:08031B007F027EEFDEFEDFFC35
:0103230022B7
:0A032400C2A6120315C2A702031BB4
:10029C00CFCDCFCECCCE1200427C007D0A120042D4
:0402AC00ED2430FF0E
:0A02B000D2A6120315C2A702031B19
:1002D700AE07BE0104ED148006BE0209ED243F44BB
:0602E70080FF1203242237
:1002ED007F381203247F0C1203247F061203247F10
:0402FD0001020324D3
:0A032E00AC031202D7AF040202B0C4
:060279008B088A09890AC6
:10027F001202D7E4FDAB08AA09A90A8D8275830083
:0C028F00120003FF60061202B00D80E9AF
:01029B002240
:0C0246007F0AEA24FFFDE434FFFC7E0088
:080252008E0F8F108C118D122C
:10025A007F017E00E4FBEBC39512E5116480F8741C
:0E026A008098500AAC0FAD101200300B80E8E7
:010278002263
:0402BA008A0A8B0B16
:1002BE001202D7AA0CEAD39400400D120246AC0AE1
:0802CE00AD0B12029C1A80ED39
:0102D6002205
:10019B001202D7C3EA64809480400B7F2B1202B00B
:1001AB008A0D8B0E800E7F2D1202B0C3E49BF50ED1
:1001BB00E49AF50DAA0CEAD39400400D120246AC5A
:0901CB000DAD0E12029C1A80ED2C
:0101D4002208
:0401D5008A0A8B0BFC
:1001D9001202D7AA0CEAD3940040297F10120248D0
:1001E900AC0AAD0BCFCDCFCECCCE120042EF540F1F
:1001F900FEC3940AEE5004243080022437FF120211
:04020900B01A80D1D6
:01020D0022CE
:04020E008A0A8B0BC2
:100212001202D7AA0CEAD394004028EA24FFFDE494
:1002220034FFFC7F027E00120252AC0AAD0BCFCD2E
:10023200CFCECCCE120042EF54012430FF1202B0D6
:030242001A80D24D
:010245002296
:10030100AE071FEE600D0000007E0B7DBEDDFEDE40
:03031100FC80ED80
:0103140022C6
:0300000002009764
:0C009700787FE4F6D8FD7581140200DECD
:10000300BB010CE58229F582E5833AF583E02250B2
:1000130006E92582F8E622BBFE06E92582F8E222FC
:0D002300E58229F582E5833AF583E4932216
:10003000EF8DF0A4A8F0CF8CF0A428CE8DF0A42EE4
:02004000FE229E
:10004200BC000BBE0029EF8DF084FFADF022E4CCA2
:10005200F875F008EF2FFFEE33FEEC33FCEE9DEC6B
:10006200984005FCEE9DFE0FD5F0E9E4CEFD22EDB1
:10007200F8F5F0EE8420D21CFEADF075F008EF2FFB
:10008200FFED33FD4007985006D5F0F222C398FDEC
:050092000FD5F0EA2289
:1000A300020123E493A3F8E493A34003F68001F24F
:1000B30008DFF48029E493A3F85407240CC8C3335E
:1000C300C4540F4420C8834004F456800146F6DF2D
:1000D300E4800B010204081020408090033EE47E7C
:1000E300019360BCA3FF543F30E509541FFEE49322
:1000F300A360010ECF54C025E060A840B8E493A3E9
:10010300FAE493A3F8E493A3C8C582C8CAC583CA13
:10011300F0A3C8C582C8CAC583CADFE9DEE780BECB
:0103420000BA
:00000001FF
