:0603B20048454C4C4F00D1
:1002BF0012036F7BFF7A0379B27D017F011202E790
:1002CF001200038F22E52260F7FB7A00750C027D86
:0802DF00017F0212032880E8F0
:10035B00AE071FEE600D0000007E0B7DBEDDFEDEE6
:03036B00FC80ED26
:01036E00226C
:06038300C2A58F80D2A785
:080389007F027EEFDEFEDFFCC7
:010391002249
:0A039E00C2A6120383C2A70203895E
:10030A00CFCDCFCECCCE12018C7C007D0A12018CCF
:04031A00ED2430FF9F
:0A031E00D2A6120383C2A7020389CE
:10034500AE07BE0104ED148006BE0209ED243F444C
:0603550080FF12039E224E
:10036F007F3812039E7F0C12039E7F0612039E7F1F
:04037F000102039ED6
:0A03A800AC03120345AF0402031E6C
:0602E7008B088A09890A58
:1002ED00120345E4FDAB08AA09A90A8D82758300A6
:0C02FD0012014DFF600612031E0D80E987
:0103090022D1
:0C028C007F0AEA24FFFDE434FFFC7E0042
:080298008E0D8F0E8C0F8D10EE
:1002A0007F017E00E4FBEBC39510E50F6480F874DA
:0E02B0008098500AAC0DAD0E12017A0B80E85A
:0102BE00221D
:040328008A0A8B0BA7
:10032C00120345AA0CEAD39400400D12028CAC0ABD
:08033C00AD0B12030A1A80ED5B
:010344002296
:1001E100120345C3EA64809480400B7F2B12031EE7
:1001F1008A168B17800E7F2D12031EC3E49BF51701
:10020100E49AF516AA15EAD39400400D12028CACBB
:0902110016AD1712030A1A80ED64
:01021A0022C1
:04021B008A1A8B1B95
:10021F00120345AA1CEAD3940040297F1012028EC4
:10022F00AC1AAD1BCFCDCFCECCCE12018CEF540F6D
:10023F00FEC3940AEE5004243080022437FF1203C9
:04024F001E1A80D122
:010253002288
:040254008A1F8B2052
:10025800120345AA21EAD394004028EA24FFFDE4CA
:1002680034FFFC7F027E00120298AC1FAD20CFCD78
:10027800CFCECCCE12018CEF54012430FF12031ED6
:030288001A80D207
:01028B002250
:10000300E4F5087590FFC2932097107F1412035BE9
:100013003097FD7F1412035B7508012096107F143F
:1000230012035B3096FD7F1412035B750805209560
:10003300107F1412035B3095FD7F1412035B750868
:10004300092094107F1412035B3094FD7F14120374
:100053005B75080D7590FFC2922097107F141203F1
:100063005B3097FD7F1412035B7508022096107FA7
:100073001412035B3096FD7F1412035B7508062090
:1000830095107F1412035B3095FD7F1412035B758B
:10009300080A2094107F1412035B3094FD7F14121E
:1000A300035B75080E7590FFC2912097107F1412A1
:1000B300035B3097FD7F1412035B750803209610D2
:1000C3007F1412035B3096FD7F1412035B750807E0
:1000D3002095107F1412035B3095FD7F1412035B90
:1000E30075080B2094107F1412035B3094FD7F146A
:1000F30012035B75080F7590FFC2902097107F1451
:1001030012035B3097FD7F1412035B75080420967E
:10011300107F1412035B3096FD7F1412035B750886
:10012300082095107F1412035B3095FD7F14120392
:100133005B75080C2094107F1412035B3094FD7FD1
:090143001412035B750810AF08EB
:01014C002290
:0300000002039266
:0C039200787FE4F6D8FD7581220202BFDE
:10014D00BB010CE58229F582E5833AF583E0225067
:10015D0006E92582F8E622BBFE06E92582F8E222B1
:0D016D00E58229F582E5833AF583E49322CB
:10017A00EF8DF0A4A8F0CF8CF0A428CE8DF0A42E99
:02018A00FE2253
:10018C00BC000BBE0029EF8DF084FFADF022E4CC57
:10019C00F875F008EF2FFFEE33FEEC33FCEE9DEC20
:1001AC00984005FCEE9DFE0FD5F0E9E4CEFD22ED66
:1001BC00F8F5F0EE8420D21CFEADF075F008EF2FB0
:1001CC00FFED33FD4007985006D5F0F222C398FDA1
:0501DC000FD5F0EA223E
:00000001FF
