:03010000010800F3
:0400E8007F147E0003
:1000EC00EF4E600F7D0C7CA9DCFEDDFCEF1F70F089
:0300FC001E80ED76
:0100FF0022DE
:10008F0075A0FE20B1271200E830B1FD1200E8E59F
:10009F0008C394084005E4F50880020508AF08740A
:1000AF0001A807088002C333D8FCF4F5A020B0D311
:1000BF001200E830B1FD1200E8E508D394005005B6
:1000CF0075080780021508AF087401A80708800299
:0900DF00C333D8FCF4F5A080AA9B
:03000000020003F8
:0C000300787FE4F6D8FD75810802004A01
:10000F0002008FE493A3F8E493A34003F68001F278
:10001F0008DFF48029E493A3F85407240CC8C333F2
:10002F00C4540F4420C8834004F456800146F6DFC1
:10003F00E4800B0102040810204080900100E47E50
:10004F00019360BCA3FF543F30E509541FFEE493B6
:10005F00A360010ECF54C025E060A840B8E493A37D
:10006F00FAE493A3F8E493A3C8C582C8CAC583CAA8
:10007F00F0A3C8C582C8CAC583CADFE9DEE780BE60
:0101030000FB
:00000001FF
